{
  "_format": "hh-sol-artifact-1",
  "contractName": "CredentialRegistry",
  "sourceName": "contracts/CredentialRegistry.sol",
  "abi": [
    {
      "inputs": [
        {
          "internalType": "address",
          "name": "initialOwner",
          "type": "address"
        }
      ],
      "stateMutability": "nonpayable",
      "type": "constructor"
    },
    {
      "inputs": [
        {
          "internalType": "address",
          "name": "owner",
          "type": "address"
        }
      ],
      "name": "OwnableInvalidOwner",
      "type": "error"
    },
    {
      "inputs": [
        {
          "internalType": "address",
          "name": "account",
          "type": "address"
        }
      ],
      "name": "OwnableUnauthorizedAccount",
      "type": "error"
    },
    {
      "anonymous": false,
      "inputs": [
        {
          "indexed": true,
          "internalType": "string",
          "name": "did",
          "type": "string"
        },
        {
          "indexed": true,
          "internalType": "bytes32",
          "name": "credentialHash",
          "type": "bytes32"
        },
        {
          "indexed": true,
          "internalType": "address",
          "name": "institution",
          "type": "address"
        }
      ],
      "name": "CredentialRegistered",
      "type": "event"
    },
    {
      "anonymous": false,
      "inputs": [
        {
          "indexed": true,
          "internalType": "string",
          "name": "did",
          "type": "string"
        },
        {
          "indexed": true,
          "internalType": "address",
          "name": "revokedBy",
          "type": "address"
        }
      ],
      "name": "CredentialRevoked",
      "type": "event"
    },
    {
      "anonymous": false,
      "inputs": [
        {
          "indexed": true,
          "internalType": "address",
          "name": "previousOwner",
          "type": "address"
        },
        {
          "indexed": true,
          "internalType": "address",
          "name": "newOwner",
          "type": "address"
        }
      ],
      "name": "OwnershipTransferred",
      "type": "event"
    },
    {
      "inputs": [
        {
          "internalType": "string",
          "name": "did",
          "type": "string"
        }
      ],
      "name": "getCredentialHash",
      "outputs": [
        {
          "internalType": "bytes32",
          "name": "",
          "type": "bytes32"
        }
      ],
      "stateMutability": "view",
      "type": "function"
    },
    {
      "inputs": [],
      "name": "owner",
      "outputs": [
        {
          "internalType": "address",
          "name": "",
          "type": "address"
        }
      ],
      "stateMutability": "view",
      "type": "function"
    },
    {
      "inputs": [
        {
          "internalType": "string",
          "name": "did",
          "type": "string"
        },
        {
          "internalType": "bytes32",
          "name": "credentialHash",
          "type": "bytes32"
        }
      ],
      "name": "registerCredential",
      "outputs": [
        {
          "internalType": "bytes32",
          "name": "",
          "type": "bytes32"
        }
      ],
      "stateMutability": "nonpayable",
      "type": "function"
    },
    {
      "inputs": [],
      "name": "renounceOwnership",
      "outputs": [],
      "stateMutability": "nonpayable",
      "type": "function"
    },
    {
      "inputs": [
        {
          "internalType": "string",
          "name": "did",
          "type": "string"
        }
      ],
      "name": "revokeCredential",
      "outputs": [],
      "stateMutability": "nonpayable",
      "type": "function"
    },
    {
      "inputs": [
        {
          "internalType": "address",
          "name": "newOwner",
          "type": "address"
        }
      ],
      "name": "transferOwnership",
      "outputs": [],
      "stateMutability": "nonpayable",
      "type": "function"
    },
    {
      "inputs": [
        {
          "internalType": "string",
          "name": "did",
          "type": "string"
        },
        {
          "internalType": "bytes32",
          "name": "credentialHash",
          "type": "bytes32"
        }
      ],
      "name": "verifyCredential",
      "outputs": [
        {
          "internalType": "bool",
          "name": "",
          "type": "bool"
        }
      ],
      "stateMutability": "view",
      "type": "function"
    }
  ],
  "bytecode": "0x60806040523480156200001157600080fd5b5060405162001077380380620010778339818101604052810190620000379190620001f4565b80600073ffffffffffffffffffffffffffffffffffffffff168173ffffffffffffffffffffffffffffffffffffffff1603620000ad5760006040517f1e4fbdf7000000000000000000000000000000000000000000000000000000008152600401620000a4919062000237565b60405180910390fd5b620000be81620000c660201b60201c565b505062000254565b60008060009054906101000a900473ffffffffffffffffffffffffffffffffffffffff169050816000806101000a81548173ffffffffffffffffffffffffffffffffffffffff021916908373ffffffffffffffffffffffffffffffffffffffff1602179055508173ffffffffffffffffffffffffffffffffffffffff168173ffffffffffffffffffffffffffffffffffffffff167f8be0079c531659141344cd1fd0a4f28419497f9722a3daafe3b4186f6b6457e060405160405180910390a35050565b600080fd5b600073ffffffffffffffffffffffffffffffffffffffff82169050919050565b6000620001bc826200018f565b9050919050565b620001ce81620001af565b8114620001da57600080fd5b50565b600081519050620001ee81620001c3565b92915050565b6000602082840312156200020d576200020c6200018a565b5b60006200021d84828501620001dd565b91505092915050565b6200023181620001af565b82525050565b60006020820190506200024e600083018462000226565b92915050565b610e1380620002646000396000f3fe608060405234801561001057600080fd5b506004361061007d5760003560e01c806382c4e3291161005b57806382c4e329146100d85780638da5cb5b14610108578063c02bce1214610126578063f2fde38b146101565761007d565b80632fc66566146100825780635e9a2d28146100b2578063715018a6146100ce575b600080fd5b61009c6004803603810190610097919061092a565b610172565b6040516100a99190610999565b60405180910390f35b6100cc60048036038101906100c791906109b4565b6103a8565b005b6100d66105b1565b005b6100f260048036038101906100ed91906109b4565b6105c5565b6040516100ff9190610999565b60405180910390f35b61011061061c565b60405161011d9190610a42565b60405180910390f35b610140600480360381019061013b919061092a565b610645565b60405161014d9190610a78565b60405180910390f35b610170600480360381019061016b9190610abf565b6106ac565b005b60008084849050116101b9576040517f08c379a00000000000000000000000000000000000000000000000000000000081526004016101b090610b49565b60405180910390fd5b6000801b82036101fe576040517f08c379a00000000000000000000000000000000000000000000000000000000081526004016101f590610bb5565b60405180910390fd5b600060018585604051610212929190610c14565b908152602001604051809103902090506000816002015414610269576040517f08c379a000000000000000000000000000000000000000000000000000000000815260040161026090610c79565b60405180910390fd5b60405180608001604052808481526020013373ffffffffffffffffffffffffffffffffffffffff16815260200142815260200160001515815250600186866040516102b5929190610c14565b90815260200160405180910390206000820151816000015560208201518160010160006101000a81548173ffffffffffffffffffffffffffffffffffffffff021916908373ffffffffffffffffffffffffffffffffffffffff1602179055506040820151816002015560608201518160030160006101000a81548160ff0219169083151502179055509050503373ffffffffffffffffffffffffffffffffffffffff16838686604051610369929190610c14565b60405180910390207f501cce1a97b5321f07a42970dbb629e27d621a75d108ccb0f133dc915423a1b460405160405180910390a4829150509392505050565b6000600183836040516103bc929190610c14565b908152602001604051809103902090506000816002015403610413576040517f08c379a000000000000000000000000000000000000000000000000000000000815260040161040a90610ce5565b60405180910390fd5b8060030160009054906101000a900460ff1615610465576040517f08c379a000000000000000000000000000000000000000000000000000000000815260040161045c90610d51565b60405180910390fd5b8060010160009054906101000a900473ffffffffffffffffffffffffffffffffffffffff1673ffffffffffffffffffffffffffffffffffffffff163373ffffffffffffffffffffffffffffffffffffffff1614806104f557506104c661061c565b73ffffffffffffffffffffffffffffffffffffffff163373ffffffffffffffffffffffffffffffffffffffff16145b610534576040517f08c379a000000000000000000000000000000000000000000000000000000000815260040161052b90610dbd565b60405180910390fd5b60018160030160006101000a81548160ff0219169083151502179055503373ffffffffffffffffffffffffffffffffffffffff168383604051610578929190610c14565b60405180910390207fe3a44cd24b5654f180d349459057b74531347881129f16c87a504ed4e6df282b60405160405180910390a3505050565b6105b9610732565b6105c360006107b9565b565b600080600184846040516105da929190610c14565b908152602001604051809103902090508060030160009054906101000a900460ff161561060d576000801b915050610616565b80600001549150505b92915050565b60008060009054906101000a900473ffffffffffffffffffffffffffffffffffffffff16905090565b6000806001858560405161065a929190610c14565b9081526020016040518091039020905060008160020154148061068b57508060030160009054906101000a900460ff165b1561069a5760009150506106a5565b828160000154149150505b9392505050565b6106b4610732565b600073ffffffffffffffffffffffffffffffffffffffff168173ffffffffffffffffffffffffffffffffffffffff16036107265760006040517f1e4fbdf700000000000000000000000000000000000000000000000000000000815260040161071d9190610a42565b60405180910390fd5b61072f816107b9565b50565b61073a61087d565b73ffffffffffffffffffffffffffffffffffffffff1661075861061c565b73ffffffffffffffffffffffffffffffffffffffff16146107b75761077b61087d565b6040517f118cdaa70000000000000000000000000000000000000000000000000000000081526004016107ae9190610a42565b60405180910390fd5b565b60008060009054906101000a900473ffffffffffffffffffffffffffffffffffffffff169050816000806101000a81548173ffffffffffffffffffffffffffffffffffffffff021916908373ffffffffffffffffffffffffffffffffffffffff1602179055508173ffffffffffffffffffffffffffffffffffffffff168173ffffffffffffffffffffffffffffffffffffffff167f8be0079c531659141344cd1fd0a4f28419497f9722a3daafe3b4186f6b6457e060405160405180910390a35050565b600033905090565b600080fd5b600080fd5b600080fd5b600080fd5b600080fd5b60008083601f8401126108b4576108b361088f565b5b8235905067ffffffffffffffff8111156108d1576108d0610894565b5b6020830191508360018202830111156108ed576108ec610899565b5b9250929050565b6000819050919050565b610907816108f4565b811461091257600080fd5b50565b600081359050610924816108fe565b92915050565b60008060006040848603121561094357610942610885565b5b600084013567ffffffffffffffff8111156109615761096061088a565b5b61096d8682870161089e565b9350935050602061098086828701610915565b9150509250925092565b610993816108f4565b82525050565b60006020820190506109ae600083018461098a565b92915050565b600080602083850312156109cb576109ca610885565b5b600083013567ffffffffffffffff8111156109e9576109e861088a565b5b6109f58582860161089e565b92509250509250929050565b600073ffffffffffffffffffffffffffffffffffffffff82169050919050565b6000610a2c82610a01565b9050919050565b610a3c81610a21565b82525050565b6000602082019050610a576000830184610a33565b92915050565b60008115159050919050565b610a7281610a5d565b82525050565b6000602082019050610a8d6000830184610a69565b92915050565b610a9c81610a21565b8114610aa757600080fd5b50565b600081359050610ab981610a93565b92915050565b600060208284031215610ad557610ad4610885565b5b6000610ae384828501610aaa565b91505092915050565b600082825260208201905092915050565b7f4449442069732072657175697265640000000000000000000000000000000000600082015250565b6000610b33600f83610aec565b9150610b3e82610afd565b602082019050919050565b60006020820190508181036000830152610b6281610b26565b9050919050565b7f43726564656e7469616c20686173682069732072657175697265640000000000600082015250565b6000610b9f601b83610aec565b9150610baa82610b69565b602082019050919050565b60006020820190508181036000830152610bce81610b92565b9050919050565b600081905092915050565b82818337600083830152505050565b6000610bfb8385610bd5565b9350610c08838584610be0565b82840190509392505050565b6000610c21828486610bef565b91508190509392505050565b7f43726564656e7469616c20616c72656164792072656769737465726564000000600082015250565b6000610c63601d83610aec565b9150610c6e82610c2d565b602082019050919050565b60006020820190508181036000830152610c9281610c56565b9050919050565b7f43726564656e7469616c206e6f7420666f756e64000000000000000000000000600082015250565b6000610ccf601483610aec565b9150610cda82610c99565b602082019050919050565b60006020820190508181036000830152610cfe81610cc2565b9050919050565b7f43726564656e7469616c20616c7265616479207265766f6b6564000000000000600082015250565b6000610d3b601a83610aec565b9150610d4682610d05565b602082019050919050565b60006020820190508181036000830152610d6a81610d2e565b9050919050565b7f4e6f7420617574686f72697a6564000000000000000000000000000000000000600082015250565b6000610da7600e83610aec565b9150610db282610d71565b602082019050919050565b60006020820190508181036000830152610dd681610d9a565b905091905056fea2646970667358221220e6add951a42b0511074a0e741bd7a4b744021980924b8371de382e125dc3e8b564736f6c63430008180033",
  "linkReferences": {},
  "deployedLinkReferences": {}
}